:020000040800F2
:1000000030490020E9020008D9210008BD1F00087E
:10001000D521000843050008B126000800000000B3
:10002000000000000000000000000000290200089D
:10003000D70600080000000085020008832200089F
:100040000303000803030008030300080303000878
:100050000303000803030008030300080303000868
:100060000303000803030008030300080303000858
:10007000F505000803030008030300080303000854
:100080000303000803030008030300080303000838
:1000900049050008030300080303000803030008E0
:1000A0000303000803030008030300080303000818
:1000B0000303000803030008030300080303000808
:1000C00003030008030300080303000803030008F8
:1000D0000303000803030008030300088D2500083C
:1000E00003030008030300080303000803030008D8
:1000F00003030008030300080303000803030008C8
:1001000003030008030300080303000803030008B7
:1001100003030008030300080303000803030008A7
:100120000303000803030008030300080303000897
:100130000303000803030008030300080303000887
:10014000590500080303000803030008030300081F
:100150000303000803030008030300080303000867
:100160000303000803030008030300080303000857
:100170000303000803030008030300080000000055
:10018000030300080303000800F002F800F03CF845
:100190000AA090E8000C82448344AAF10107DA45E2
:1001A00001D100F031F8AFF2090EBAE80F0013F0F8
:1001B000010F18BFFB1A43F001031847404100002C
:1001C00060410000103A24BF78C878C1FAD85207BD
:1001D00024BF30C830C144BF04680C6070470000C1
:1001E0000023002400250026103A28BF78C1FBD840
:1001F000520728BF30C148BF0B6070471FB503F0DE
:10020000FDFF1FBD10B510BD00F061F91146FFF7ED
:10021000F5FF02F0ABFA00F07FF903B4FFF7F2FF4D
:1002200003BC00F087F900002C4B19680868B0E89F
:10023000F04F80F30988BFF36F8F4FF0000080F319
:10024000118870470000000008480068006880F3CB
:1002500008884FF0000080F3148862B661B6BFF3DF
:100260004F8FBFF36F8F00DF00BF00BF08ED00E0CE
:10027000DFF80C00016841F470010160704700BFB5
:1002800088ED00E0EFF30980BFF36F8F134B1A681E
:100290001EF0100F08BF20ED108A20E9F04F10600B
:1002A00009B44FF0500080F31188BFF34F8FBFF3B4
:1002B0006F8F03F0A9F84FF0000080F3118809BC9C
:1002C00019680868B0E8F04F1EF0100F08BFB0ECD6
:1002D000108A80F30988BFF36F8F704724000020D5
:1002E000EFF3058070470000094880470948004740
:1002F000FEE7FEE7FEE7FEE7FEE7FEE7FEE7FEE7D6
:10030000FEE7FEE704480549054A064B7047000032
:100310004D230008890100083043002030490020A7
:10032000304500203045002053EA020C00F069807F
:100330002DE9F04B4FF00006002B1FBFB3FA83F5F9
:1003400003FA05F424FA05F65E4012BF1643B2FA2A
:1003500082F502FA05F4C5F120051EBF22FA05FC5C
:1003600044EA0C04203556EA044C4FEA144418BF02
:10037000641C4FF000084FF00009904271EB030C31
:1003800039D3002919BFB1FA81F701FA07F6B0FA9B
:1003900080F700FA07F6C7F120071EBF20FA07FC16
:1003A00046EA0C062037B6FBF4FCA7EB0507103F26
:1003B00007F01F0BCBF120060CFA0BFB2CFA06F60C
:1003C00044BFB3460026202FA4BF5E464FF0000B6B
:1003D0005BEA060C08BF4FF0010B19EB0B09ABFBF6
:1003E000027C48EB0608C01B06FB02CC0BFB03CCCF
:1003F00071EB0C01C1E70B46024641464846BDE899
:10040000F08B13B54FF000004FF00001AFF3008008
:10041000BDE81C40704710B5203AC0F00B80B1E831
:100420001850203AA0E81850B1E81850A0E8185029
:10043000BFF4F5AF5FEA027C24BFB1E81850A0E832
:10044000185044BF18C918C0BDE810405FEA827C4C
:1004500024BF51F8043B40F8043B08BF7047D20763
:1004600028BF31F8023B48BF11F8012B28BF20F804
:10047000023B48BF00F8012B70474FF0000200B567
:10048000134694469646203922BFA0E80C50A0E8B7
:100490000C50B1F12001BFF4F7AF090728BFA0E865
:1004A0000C5048BF0CC05DF804EB890028BF40F831
:1004B000042B08BF704748BF20F8022B11F0804F73
:1004C00018BF00F8012B704770477047704775469A
:1004D00000F02CF8AE4605006946534620F00700B0
:1004E000854618B020B5FFF70DFFBDE820404FF05E
:1004F00000064FF000074FF000084FF0000B21F00E
:100500000701AC46ACE8C009ACE8C009ACE8C009DA
:10051000ACE8C0098D46704710B50446AFF30080C3
:100520002046BDE81040FFF778BE00000048704745
:10053000CC42002001491820ABBEFEE72600020095
:10054000704700BFFEE7000010B5024800F0DFFA78
:1005500010BD0000EC02002010B5024800F0D7FAF0
:1005600010BD00001403002038B505460C4640F2CB
:10057000FE200A49086000208860C86004200861E5
:10058000280A074908704D70200A8870CC706B46A5
:100590000A460249034800F0B7F838BD544200202B
:1005A0008C000020EC020020F8B506460C461546EB
:1005B0004FF400700C49086000208860C860062075
:1005C0000861300A094908704E706042000A88705C
:1005D0006042C870280A08714D716B460A4602498C
:1005E000034800F091F8F8BD544200208C00002030
:1005F000EC020020704700000146087810381823EC
:10060000B0FBF3F20848805CC865032A05D9086886
:100610006FF30900001D886503E008686FF30900A7
:100620008865886D70470000804200080146002000
:100630008A6A8B69CBB932B1012A0DD0022A03D064
:10064000032A10D10EE000BFCB6A03F08073B3F130
:10065000807F00D1012007E0CB6AB3F1C07F00D1D9
:10066000012001E000E000BF34E08B69B3F5005FDA
:100670001AD132B1012A07D0022A03D0032A11D19C
:100680000AE000BF01200EE0CB6A03F08073B3F1F3
:10069000807F00D1012006E0CB6AB3F1C07F00D19A
:1006A000012000E000BF15E032B1012A05D0022A86
:1006B00004D0032A0CD103E000BF00BF012008E0F2
:1006C000CB6A03F08073B3F1807F00D1012000E09A
:1006D00000BF00BF7047704772B600BFFEE710B59D
:1006E000024692F82030012B01D0022B06D110686F
:1006F0004069084314686061002010BD506A40F4EE
:10070000802050620120F8E7F0B504460D461E46F1
:1007100094F8207020688368A86800B900E000BFE2
:10072000012F01D0022F7DD103F0806030B903F09A
:10073000006018B903F0805000287ED0C3F3016137
:10074000012088403060A86860B9B5F800C0E8684A
:1007500040EA4C5C206800F5C07000EB0110C0F866
:1007600000C00FE0D5E901C040EACC00D5F80CC0CC
:1007700040EA0C00D4F800C00CF5C07C0CEB011C66
:10078000CCF80000D5F810C0206800F5C07000EB70
:100790000110C0F804C0287D01280ED1206800F5A2
:1007A000C07000EB0110406840F4807C206800F5C8
:1007B000C07000EB0110C0F804C0D079000692F8B8
:1007C00006C040EA0C4092F805C040EA0C2092F8BE
:1007D00004C040EA0C00D4F800C00CF5C07C0CEB5F
:1007E000011CCCF80C00D078000692F802C040EA58
:1007F0000C4092F801C040EA0C2092F800C040EA98
:100800000C00D4F800C00CF5C07C0CEB011CCCF83B
:100810000800206800F5C07000EB0110006840F08F
:10082000010C01E00FE008E0206800F5C07000EB6B
:100830000110C0F800C00020F0BD606A40F4001054
:1008400060620120F8E7606A40F480206062012065
:10085000F2E70000F0B504460A46216894F82050FB
:10086000012D01D0022D7ED1424901F500710868A9
:1008700040F001000860086820F47C5008600868B7
:10088000566A40EA06200860107D00F01F0601202D
:1008900000FA06F3C8699843C861A1F50071D069F0
:1008A000C8B9D1F80C029843C1F80C02908880B204
:1008B000968940EA064601F51070576940F837609E
:1008C000108880B2168940EA064601F51070576913
:1008D00000EBC7004660D069012819D1D1F80C029D
:1008E0001843C1F80C02908880B2168840EA064688
:1008F00001F51070576940F83760908980B2168909
:1009000040EA064601F51070576900EBC7004660E3
:10091000906928B9D1F804029843C1F8040204E0B0
:10092000D1F804021843C1F80402106928B9D1F8BB
:1009300014029843C1F8140204E0D1F814021843D9
:10094000C1F81402106A012804D1D1F81C0218431E
:10095000C1F81C02D1F8000220F00100C1F8000229
:100960000020F0BDFFE7606A40F480206062012053
:10097000F7E7000000640040704770B5044694F843
:100980002050012D01D0022D7DD151B92068C068C1
:1009900000F0030080B9606A40F40010606201203A
:1009A00070BD2068006900F0030028B9606A40F457
:1009B000001060620120F3E7206800F5D87000EBBA
:1009C0000110006800F004009060906840B9206851
:1009D00000F5D87000EB01100068400D106007E0D2
:1009E000206800F5D87000EB01100068C008506066
:1009F000206800F5D87000EB0110006800F00200DC
:100A0000D060206800F5D87000EB0110406800F05D
:100A10000F00082802D30820106108E0206800F5C4
:100A2000D87000EB0110406800F00F0010612068E2
:100A300000F5D87000EB0110406800F47F40000A18
:100A40009061206800F5D87000EB01104068000C40
:100A50005061206800F5D87000EB011080681870B4
:100A6000206800F5D87000EB0110806800F47F402A
:100A7000000A5870206800F5D87000EB01108068FB
:100A800000F47F0000E03CE0000C9870206800F566
:100A9000D87000EB01108068000ED870206800F557
:100AA000D87000EB0110C0681871206800F5D8708C
:100AB00000EB0110C06800F47F40000A5871206804
:100AC00000F5D87000EB0110C06800F47F00000C46
:100AD0009871206800F5D87000EB0110C068000E16
:100AE000D87131B92068C06840F020002668F060F5
:100AF00005E02068006940F0200026683061002091
:100B00004EE7606A40F480206062012048E72DE9EA
:100B1000F05F04460025206846692068D0F80490FC
:100B2000206887682068D0F80CA02068D0F810B042
:100B30002068D0F8188006F00100002855D007F092
:100B40000100C0B101202168886007F0020018B1DF
:100B5000204600F082FB0EE007F0040010B145F4DF
:100B6000006508E007F0080010B145F4805502E088
:100B7000204600F071FB07F48070C8B14FF480701C
:100B80002168886007F4007018B1204600F067FB08
:100B90000EE007F4806010B145F4005508E007F45A
:100BA000006010B145F4804502E0204600F056FB9D
:100BB00007F48030C8B14FF480302168886007F4B2
:100BC000003018B1204600F04CFB0EE007F4802006
:100BD00010B145F4004508E007F4002010B145F4D9
:100BE000803502E0204600F03BFB06F0080038B1FB
:100BF0000AF0100020B145F4007510202168C8608B
:100C000006F0040040B10AF0080028B1082021686D
:100C1000C860204600F00CFA06F0020038B12068E7
:100C2000C06800F0030010B1204600F003FA06F09F
:100C3000400038B10BF0100020B145F48065102061
:100C40002168086106F0200040B10BF0080028B1CF
:100C5000082021680861204600F0CCFA06F0100058
:100C600038B12068006900F0030010B1204600F0A0
:100C7000C2FA06F4003040B109F0100028B110208B
:100C800021684860204600F0B7FA06F4803040B191
:100C900009F0080028B1082021684860204600F0CB
:100CA000E1FA06F4004088B309F0040078B306F4D2
:100CB000807020B108F0010008B145F0010506F48C
:100CC000007020B108F0020008B145F0020506F4FA
:100CD000806020B108F0040008B145F0040506F476
:100CE0000060A0B108F0700088B108F070004028E2
:100CF00017D006DC10280BD020280CD0302819D1B2
:100D00000CE0502810D0602814D110E01DE019E04C
:100D100045F008050FE045F010050CE045F0200512
:100D200009E045F0400506E045F0800503E045F4A4
:100D3000807500E000BF00BF2068806920F070006F
:100D4000216888610420216848602DB1606A2843C9
:100D500060622046FFF710FEBDE8F09F70B50446C4
:100D60000CB9012070BD94F8200010B9204600F0A5
:100D7000AFF82068006840F001002168086000F0CA
:100D8000E3FB05460DE000F0DFFB401B0A2808D915
:100D9000606A40F400306062052084F82000012081
:100DA000E0E72068406800F001000028EBD02068F0
:100DB000006820F002002168086000F0C5FB0546CD
:100DC0000DE000F0C1FB401B0A2808D9606A40F41E
:100DD00000306062052084F820000120C2E720680E
:100DE000406800F002000028EBD1207E012806D1E7
:100DF0002068006840F080002168086005E02068F5
:100E0000006820F0800021680860607E012806D11B
:100E10002068006840F040002168086005E0206814
:100E2000006820F0400021680860A07E012806D1FB
:100E30002068006840F020002168086005E0206814
:100E4000006820F0200021680860E07E012806D1BB
:100E50002068006820F010002168086005E0206824
:100E6000006840F0100021680860207F012806D14A
:100E70002068006840F008002168086005E02068EC
:100E8000006820F0080021680860607F012806D112
:100E90002068006840F004002168086005E02068D0
:100EA000006820F0040021680860D4E902010843CA
:100EB00021690843616908436168491E0843216844
:100EC000C86100206062012084F82000002049E70A
:100ED00010B586B00446142101A8FFF7CEFA4E499A
:100EE0002068884241D14D480068401C4B49086049
:100EF0000846006801280FD100BF00200090484834
:100F0000006840F00070464908600846006800F03C
:100F10000070009000BF00BF00BF0020009040485C
:100F20001038006840F008003D4910390860084654
:100F3000006800F00800009000BF00BF032001908F
:100F400002200290002003900320049009200590C5
:100F500001A9344800F0FEF900220621142000F017
:100F600087FB142000F070FB54E02F492068884272
:100F700050D100BF002000902948006840F08060F8
:100F8000274908600846006800F08060009000BFB4
:100F900000BF22480068401C2049086008460068DD
:100FA00001280FD100BF002000901D48006840F0CC
:100FB00000701B4908600846006800F0007000904F
:100FC00000BF00BF00BF0020009015481038006827
:100FD00040F002001249103908600846006800F02D
:100FE0000200009000BF00BF60200190022002902C
:100FF00000200390032004900920059001A90B48CC
:1010000000F0A8F900220621402000F031FB40202A
:1010100000F01AFB06B010BD006400401000002074
:1010200040380240000C02400068004000040240CA
:101030007047000010B58AB0044601AB03AA002136
:101040002046FFF79AFC674884427DD140F2032294
:101050000398811A904254D005DCA0F2012050B1CF
:10106000012872D12AE0062970D0A1F5F051433948
:101070000029F6D16BE05C48008800B25A4908812B
:101080009DF805009DF8041040EA012056490880AB
:101090009DF807009DF8061040EA012000B2524971
:1010A00048809DF809009DF8081040EA012000B230
:1010B0004D4988809DF80A0088718FE04A48408930
:1010C00001B2494841829DF805009DF8041040EAAC
:1010D0000120454948819DF807009DF8061040EA27
:1010E000012001B2404881819DF809009DF8081057
:1010F00040EA012001B23C48C1819DF80A10017408
:101100006CE03A48408901B2384841829DF80500B8
:101110009DF8041040EA0120344948819DF80700F9
:101120009DF8061040EA012001B2304881819DF807
:1011300009009DF8081040EA012001B22B48C18146
:101140009DF80A10017449E049E046E022E0284891
:10115000008800B2264908819DF805009DF804101A
:1011600040EA0120224908809DF807009DF80610FA
:1011700040EA012000B21E4948809DF809009DF810
:10118000081040EA012000B2194988809DF80A0041
:10119000887123E01548008800B2144908819DF841
:1011A00005009DF8041040EA0120104908809DF8D0
:1011B00007009DF8061040EA012000B20B49488064
:1011C0009DF809009DF8081040EA012000B2074987
:1011D00088809DF80A00887100E000BF00BF0AB057
:1011E00010BD0000EC0200203E4200202042002002
:1011F0003442002070477047704770B5044694F839
:101200002000012822D1022084F8200020680068F4
:1012100020F001002168086000F096F905460DE015
:1012200000F092F9401B0A2808D9606A40F40030A7
:101230006062052084F82000012070BD20684068AD
:1012400000F001000028EBD16062F6E7606A40F42C
:10125000002060620120F0E77047704770477047D8
:1012600070477047704700002DE9F04104460025A3
:1012700000F06AF9074614B90120BDE8F081606A00
:1012800000B100BF022084F8350000BF002084F8C0
:10129000340000BF2068006820F001002168086069
:1012A0000AE000F051F9C01B052805D9202060652F
:1012B000032084F83500E0E72068006800F00100B2
:1012C0000028EED12068056821480540D4E90101D5
:1012D0000843E16808432169084361690843A1693B
:1012E0000843E1690843216A08430543606A04280A
:1012F00003D1D4E90B010843054320680560206849
:10130000456925F00705606A0543606A04280DD128
:10131000A06A0543E06A48B12046FFF787F928B183
:1013200040206065012084F83500A6E7206845610B
:101330002046FFF761F9064694F85C103F2088408C
:10134000B06000206065012084F83500002094E73B
:101350003F8010F0F8B502460B460025002400201F
:101360000021D6E0012606FA01F51E6806EA05040A
:10137000AC4274D11E7906F00306012E04D01E790A
:1013800006F00306022E13D190684F000326BE40DC
:10139000B0434F00DE68BE40304390605068012685
:1013A0008E40B0431E79C6F300168E403043506025
:1013B0001E7906F00306032E09D0D0684F000326DD
:1013C000BE40B0434F009E68BE403043D0601E799F
:1013D00006F00306022E13D1CF0802F1200656F8BC
:1013E00027004E07F70E0F26BE40B0434F07FF0EF3
:1013F0001E69BE403043CF0802F1200646F82700A0
:1014000010684F000326BE40B0431E7906F0030665
:101410004F00BE40304310605E6806F44036002E38
:1014200076D000BF002600963C4E366846F48046D3
:101430003A4F3E603E46366806F48046009600BF4E
:1014400000BF374E8F0856F827008E07370F0F263C
:10145000BE40B043334EB24202D1002624E057E0F2
:10146000314EB24201D101261EE0304EB24201D1CE
:10147000022619E02E4EB24201D1032614E02D4E71
:10148000B24201D104260FE02B4EB24201D1052613
:101490000AE02A4EB24201D1062605E0284EB242A9
:1014A00001D1072600E008268F073F0FBE403043DA
:1014B0001B4E8F0846F82700224E3068A0435E6816
:1014C00006F4801606B120431E4E3060361D30688B
:1014D000A0435E6806F4001606B12043194E361D7F
:1014E0003060184E361F3068A0435E6806F4003640
:1014F00006B12043134E361F3060361F3068A043BC
:101500005E6806F4803606B120430E4E083E306019
:10151000491C1029FFF426AFF8BD000044380240F2
:101520000838014000000240000402400008024068
:10153000000C02400010024000140240001802405B
:10154000001C0240083C0140014800687047000050
:101550001400002003480068034909780844014941
:1015600008607047140000201C00002010B50D48D2
:10157000006840F400700B4908600846006840F4B9
:10158000806008600846006840F4807008600320AE
:1015900000F0ACF80F2000F007F800F02BF8002066
:1015A00010BD0000003C024070B504460E480078B3
:1015B0004FF47A71B1FBF0F00C490968B1FBF0F51A
:1015C000284600F035FC08B1012070BD102C07D270
:1015D00000222146501E00F04BF80548046001E04F
:1015E0000120F2E70020F0E71C000020200000208E
:1015F0001800002008B500BF0020009011480068C6
:1016000040F480400F4908600846006800F48040BC
:10161000009000BF00BF00BF00200090081F0068BE
:1016200040F08050091F08600846006800F08050B4
:10163000009000BF00BF00220F21901E00F018F89C
:1016400008BD0000443802400146084600280DDB72
:1016500000BF00BF00F01F0301229A4043099B0016
:1016600003F1E023C3F8002100BF00BF00BF7047B3
:101670002DE9F05F80460D461646002701F01AF866
:10168000074639462A46334601F00700C0F1070AEB
:10169000BAF1040F02D94FF0040A01E0C0F1070AC1
:1016A000D14600F1040ABAF1070F02D24FF0000A46
:1016B00001E0A0F1030AD4464FF0010A0AFA09FA40
:1016C000AAF1010A0AEA020A0AFA0CFA4FF0010B1F
:1016D0000BFA0CFBABF1010B0BEA030B4AEA0B0410
:1016E0002146404600F0EEFFBDE8F09F00BF00F04D
:1016F0000702064B19684FF6FF031940044B0B43D2
:1017000043EA0221014B196000BF70470CED00E075
:101710000000FA0570B504460D460CB9012070BDF5
:101720005848006800F00700A84209D255490D70DA
:101730000846006800F00700A84201D00120EEE74B
:10174000207800F0020002281DD1207800F004006B
:10175000042805D14C48006840F4E0504A4908602C
:10176000207800F00800082805D14748006840F4B8
:101770006040454908604448006820F0F000A168D6
:10178000084341490860207800F00100A8B3606870
:10179000012807D13C4808380068C0F34040B8B978
:1017A0000120BCE76068022802D06068032807D1E6
:1017B000354808380068C0F3406048B90120AEE7FA
:1017C000314808380068C0F3400008B90120A6E796
:1017D0002D48006820F00300616808432A4908602A
:1017E000FFF7B2FE064609E0FFF7AEFE801B41F2AE
:1017F0008831884202D9032091E707E02248006837
:1018000000F00C006168B0EB810FEDD11D4800685D
:1018100000F00700A84209D91A490D70084600686F
:1018200000F00700A84201D0012078E7207800F0FE
:101830000400042807D11448006820F4E050E1684F
:10184000084311490860207800F00800082808D1F2
:101850000D48006820F46040216940EAC1000A494F
:10186000086000F03FF808490968C1F30311074A0E
:10187000515CC8400649086006480068FFF794FEBE
:1018800000204CE7003C0240083802408842000833
:101890002000002018000020014800687047000068
:1018A0002000002000B5FFF7F7FF04490968C1F3E5
:1018B0008221034A515CC84000BD00000838024044
:1018C0009842000800B5FFF7E7FF04490968C1F333
:1018D0004231034A515CC84000BD00000838024054
:1018E000984200082DE9F047002400250026A14673
:1018F0002548006800F00C0020B1042805D0082815
:101900003AD105E0DFF8849039E0DFF8849036E0E2
:101910001D48001F006800F03F041B48001F0068BE
:1019200000F4800078B11A481749091F0968C1F30B
:101930008811A0FB01700146224600233846FEF7BD
:10194000F3FC05460EE011480F49091F0968C1F371
:101950008811A0FB01700146224600233846FEF79D
:10196000E3FC05460848001F0068C0F30140401C26
:101970004600B5FBF6F902E0DFF8109000BF00BFAB
:101980004846BDE8F0870000083802400024F40013
:10199000001BB700F8B504460CB90120F8BD20784B
:1019A00000F00100002874D0F948006800F00C0035
:1019B00004280DD0F648006800F00C00082813D168
:1019C000F348001F006800F48000B0F5800F0BD1D1
:1019D000EF4808380068C0F34040002859D06068DC
:1019E000002856D10120D9E700BF6068B0F5803FDC
:1019F00008D1E7480838006840F48030E4490839E5
:101A000008601EE06068B0F5A02F0DD1E0480838EE
:101A1000006840F48020DE49083908600846006804
:101A200040F4803008600CE0D9480838006820F4A1
:101A30008030D749083908600846006820F48020C3
:101A4000086000BF606890B1FFF77EFD054606E0C4
:101A5000FFF77AFD401B642801D903209EE7CC489C
:101A600008380068C0F340400028F1D011E0FFF7CB
:101A70006BFD054606E0FFF767FD401B642801D9B2
:101A800003208BE7C24808380068C0F340400028B4
:101A9000F1D1207800F0020002285FD1BC48006834
:101AA00000F00C0058B1BA48006800F00C0008289B
:101AB0001CD1B748001F006800F48000B0B9B448DA
:101AC00008380068C0F3400020B1E068012801D068
:101AD000012063E7AE480838006820F0F80021696B
:101AE00040EAC100AA490839086037E0E06800B35D
:101AF0000120A8490860FFF727FD054606E0FFF72B
:101B000023FD401B022801D9032047E7A0480838DD
:101B10000068C0F340000028F1D09D4808380068F4
:101B200020F0F800216940EAC100994908390860AD
:101B300014E0002097490860FFF706FD054606E01F
:101B4000FFF702FD401B022801D9032026E7904839
:101B500008380068C0F340000028F1D1207800F078
:101B6000080008282CD16069A8B101208A490860C2
:101B7000FFF7EAFC054606E0FFF7E6FC401B0228FB
:101B800001D903200AE782486C300068C0F34000A6
:101B90000028F1D014E000207F490860FFF7D4FC52
:101BA000054606E0FFF7D0FC401B022801D90320C0
:101BB000F4E677486C300068C0F340000028F1D1AB
:101BC000207800F00400042870D1002770483830D5
:101BD000006800F0805090B900BF002000906C4871
:101BE0003830006840F08050694938310860084654
:101BF000006800F08050009000BF00BF01276748D8
:101C0000006800F48070B0B96448006840F48070E7
:101C100062490860FFF798FC054606E0FFF794FC70
:101C2000401B022801D90320B8E65C48006800F494
:101C300080700028F2D000BFA068012808D1544865
:101C40006830006840F001005149683108601DE0CB
:101C5000A06805280DD14E486830006840F00400A7
:101C60004B49683108600846006840F00100086090
:101C70000CE047486830006820F0010044496831B2
:101C800008600846006820F00400086000BFA068F3
:101C9000A8B1FFF759FC054609E0FFF755FC401BCA
:101CA00041F28831884202D9032077E626E038489D
:101CB00068300068C0F340000028EED013E0FFF762
:101CC00043FC054608E0FFF73FFC401B41F288312A
:101CD000884201D9032061E62D4868300068C0F3CE
:101CE00040000028EFD1012F07D129483830006883
:101CF00020F0805026493831086000BFA0690028D4
:101D000045D02348006800F00C0008285DD0A06989
:101D1000022845D100201F490866FFF715FC05463B
:101D200006E0FFF711FC401B022801D9032035E62D
:101D3000174808380068C0F340600028F1D1D4E9A2
:101D400007010843616A40EA81110122A06AC2EBDF
:101D5000500041EA00412C20005D41EA00600C493E
:101D6000091F086001200B490866FFF7EDFB0546D7
:101D700006E0FFF7E9FB401B022801D903200DE62E
:101D8000034808380068C0F340600028F1D049E0FB
:101D90000838024000004742800E47420070004071
:101DA000002021490866FFF7CFFB054606E0FFF754
:101DB000CBFB401B022801D90320EFE51B4800683C
:101DC000C0F340600028F2D12CE0A069012800D1C6
:101DD000E4E51648001D0668A069012820D006F435
:101DE0008001E06981421BD106F03F01206A8142F7
:101DF00016D147F6C0703040616AB0EB811F0FD139
:101E000006F440310122A06AC2EB5000B1EB004F52
:101E100006D106F070612C20005DB1EB006F01D09F
:101E20000120BBE50020B9E5000047420038024030
:101E300070B504462546681EB0F1807F01D30120AD
:101E40000FE0681E4FF0E02148610F214FF0FF3096
:101E500000F038FC00204FF0E02188610720086185
:101E6000002070BD10B504460CB9012010BDA0695A
:101E700000B100E000BF94F8410028B9002084F8C8
:101E80004000204600F02AF8242084F84100206811
:101E9000C06820F400502168C860204600F060FA55
:101EA0002068006920F4904021680861206840693A
:101EB00020F02A00216848612068C06840F4005082
:101EC0002168C86000206064202084F8410084F804
:101ED00042000020606300BFC8E7000010B586B074
:101EE0000446142101A8FEF7C8FA2F492068884249
:101EF00058D100BF002000902C48006840F480209A
:101F00002A4908600846006800F48020009000BF5D
:101F100000BF00BF0020009024481038006840F047
:101F200004002249103908600846006800F00400E7
:101F3000009000BF00BF4FF440600190022002906B
:101F400000200390032004900720059001A9184861
:101F5000FFF700FA1748184908604FF00060486022
:101F6000002115488160C1604FF48061016100214A
:101F700041618161C1614FF44031016200214162E0
:101F8000FFF772F908B1FEF7A7FB00BF0A48E0634C
:101F9000846300BF002204212720FFF769FB27206C
:101FA000FFF752FB06B010BD004800404038024029
:101FB00000080240286002408403002000BFFEE7C2
:101FC00010B50E480E4908600320486000210C48F7
:101FD0008160C1604FF4102101614FF40011416133
:101FE0000021017641768176C17601774177FEF74F
:101FF000B5FE08B1FEF770FB10BD000000640040A4
:10200000EC02002010B50E480E490860032048601D
:1020100000210C488160C1604FF4102101614FF430
:10202000001141610021017641768176C176017708
:102030004177FEF793FE08B1FEF74EFB10BD00009E
:10204000006800401403002008B500BF0020009085
:102050000A48006840F40010084908600846006813
:1020600000F40010009000BF00BF002205210C20EA
:10207000FFF7FEFA0C20FFF7E7FA08BD3038024000
:1020800000B59DB01C22184916A8FEF7C4F900211E
:1020900016A800F0E4FB154908601C2212491C3107
:1020A0000FA8FEF7B8F900210FA800F0D8FB1049DF
:1020B00008601C220C49383108A8FEF7ACF9002151
:1020C00008A800F0CCFB0B4908601C2206495431DB
:1020D00001A8FEF7A0F9002101A800F0C0FB064905
:1020E00008601DB000BD0000104200080000002084
:1020F00004000020080000200C00002008B500BFEC
:10210000002000902448006840F002002249086046
:102110000846006800F00200009000BF00BF00BF4A
:10212000002000900846006840F001000860084662
:10213000006800F00100009000BF00BF00BF002059
:1021400000900846006840F00800086008460068F3
:1021500000F00800009000BF00BF00BF002000900A
:102160000846006840F0040008600846006800F077
:102170000400009000BF00BF00BF00200090084690
:10218000006840F0800008600846006800F08000A9
:10219000009000BF00BF08BD3038024010B50A48AB
:1021A0000A4908600A484860002108488160C16007
:1021B00001610C21416100218161C161FFF752FE83
:1021C00008B1FEF789FA10BD004800403C0300202A
:1021D000A086010000BFFEE77047000010B5234B4A
:1021E0001B685B6943F04003204C246863611F4B0C
:1021F0001B68DB6843F010031C4C2468E3601C4B35
:102200001B681B6823F00103194C2468236007E056
:10221000174B1B681B6823F00103154C24682360CF
:10222000134B1B681B6803F00103002BF0D1114B0B
:102230000F4C2468A3600E4B1B68D8600C4B1B68C6
:1022400019610B4B1B685A60094B1B681B6843F4F0
:102250008023074C24682360054B1B681B6843F0F0
:102260000103034C2468236010BD00003C030020E0
:10227000840300200448004000BF012000F0E2FA7F
:10228000FBE710B5FFF766F901F0ECF9012801D082
:1022900001F06CF910BD000000B593B0302107A823
:1022A000FEF7EBF8142102A8FEF7E7F800BF0020C4
:1022B00001902448006840F0805022490860084698
:1022C000006800F08050019000BF00BF00BF0020F8
:1022D00001901D48006840F480401B490860084692
:1022E000006800F48040019000BF00BF012007900B
:1022F0000004089002200D9041050E9106210F91D7
:10230000A8211091022111910421129107A8FFF731
:1023100041FB08B1FEF7E0F90F2002900220039084
:10232000002004904FF4A05005904FF48050069088
:10233000052102A8FFF7EEF908B1FEF7CDF913B0B9
:1023400000BD0000403802400070004003480068B3
:1023500040F47000014908607047000088ED00E01B
:102360002DE9F84F04462068006920F44050E168E8
:102370000843216808612169A0680843616908432E
:10238000E169084300902068C06849F20C61884305
:10239000009908432168C8602068406920F44070B3
:1023A000A16908432168486176492068884203D0C2
:1023B00075492068884203D1FFF784FA814602E01C
:1023C000FFF770FA8146E069B0F5004F6CD102204A
:1023D0006168A0FB015003461920A9FB007001466B
:1023E0002A463846FDF7A0FF6421B0FBF1F04FEA22
:1023F000001A02206168A0FB01510B461920A9FBBD
:1024000000712A463846FDF78FFF83460220616837
:10241000A0FB015003461920A9FB00712A4638464B
:10242000FDF782FF6421B0FBF1F000EBC00101EB8E
:102430000010ABEB8000322101EBC0006421B0FB47
:10244000F1F000F0F8000AEB400A02206168A0FBFE
:10245000015003461920A9FB007001462A46384660
:10246000FDF762FF834602206168A0FB015003462E
:102470001920A9FB00712A463846FDF755FF642153
:10248000B0FBF1F000EBC00101EB0010ABEB800002
:10249000322101EBC0006421B0FBF1F000F0070035
:1024A0005044216888606AE004206168A0FB015004
:1024B00003461920A9FB007001462A463846FDF75D
:1024C00033FF824604206168A0FB015003461920B7
:1024D000A9FB007001462A463846FDF725FF642116
:1024E000B0FBF1F000EBC00101EB0010AAEB8000A3
:1024F000322101EB00106421B0FBF1F000F0F00A92
:1025000004206168A0FB017003461920A9FB00515B
:102510003A462846FDF708FF6421B0FBF1F00AEBCC
:10252000001A04206168A0FB01510B461920A9FB89
:1025300000712A463846FDF7F7FE8346042061689D
:10254000A0FB015003461920A9FB007001462A4652
:102550003846FDF7E9FE6421B0FBF1F000EBC00165
:1025600001EB0010ABEB8000322101EB0010642185
:10257000B0FBF1F000F00F00504421688860BDE826
:10258000F88F0000001001400014014008B54148D8
:102590000068006800F0200060B100BF00200090DB
:1025A0003C480068006800903A4800684068009025
:1025B00000BF6EE03848006800F01000002868D0C6
:1025C00000BF002000903348006800680090314848
:1025D00000684068009000BF00BF30480068006895
:1025E00000F4002058BB2D480068006820F001006E
:1025F0002A4909680860294800684068C0F1240039
:102600002749088024202549096848602348006834
:10261000006840F400202149096808601F480068EC
:10262000006840F001001D49096808601C480088E6
:1026300012282ED11B491C4800F058FC29E01748ED
:102640000068006820F00100144909680860134818
:1026500000684068C0F124001149088024200F4917
:10266000096848601148806A20F400200F49886298
:102670000A480068006840F00100084909680860DD
:1026800007480088122804D106490748243000F082
:102690002DFC08BD3C0300200048004084030020BE
:1026A000940000206C420020824200200060024022
:1026B00000BFFEE702480068C0F302207047000038
:1026C0000CED00E010B5002804DB0A07130E054AE4
:1026D000135406E00A07140E034A00F00F031B1FF1
:1026E000D45410BD00E400E018ED00E000B58BB05C
:1026F00001200990002007900120089000200190FF
:102700000290039004900590069001A90C48FEF7F2
:10271000A1F80B48FEF771FD02210948FDF7DFFF24
:102720000E200A90069001A90648FEF793F8054886
:10273000FEF763FD02210348FDF7D1FF0BB000BD9A
:10274000EC0200201403002000BFFEE700487047A1
:102750003E420020004870476C420020004870470D
:10276000484200200048704720420020FEF7FEFE4D
:10277000FFF792FDFFF7C2FCFFF766FCFFF720FCB6
:10278000FFF740FCFFF70AFDFFF7B0FF00F0A4FBE6
:10279000FFF776FC00F05EF800BFFEE7002184281A
:1027A00000D0C11C0846704700B52DED108B85B0D8
:1027B000B0EE40AAF0EE60AAB0EE418AF0EE618A77
:1027C000B0EE42BAF0EE62BAB0EE439AF0EE639A1F
:1027D000B0EE44CAF0EE64CA53EC182B51EC1B0B5C
:1027E00001F022FC41EC1D0B53EC192B51EC1C0B9E
:1027F00001F01AFC41EC1E0B53EC182B51EC1A0B98
:1028000001F012FC41EC1F0B53EC1E2B01F00EFBF0
:1028100053EC1D2BCDE900019DED000B51EC100B8D
:1028200001F098F953EC192BCDE902019DED020B53
:1028300051EC100B01F0E6F841EC100B05B0BDECCB
:10284000108B00BD10B5002800D1012000F068FDFC
:10285000002010BD10B500F08BFD002010BD30B57C
:1028600085B004460D466169B4F90800002910D00E
:10287000A16971B1FFF792FF6269A16901920291AA
:1028800000902B4622692168606800F0BBFE04902E
:1028900010E0FFF783FF04A901910090208A2B46E6
:1028A00082B22168606800F077FE012802D005B08E
:1028B000002030BD049805B030BD0000B0EE401AD5
:1028C00010B99FED450A704790ED0F0A80ED100A90
:1028D00090ED0E0A80ED0F0AC0ED050A80ED061A94
:1028E00030EEC10A80ED0E0A90ED000AD0ED0E1A0E
:1028F00020EE210A80ED080A90ED090AD0ED011AB8
:1029000090ED0E2A01EE820A80ED090A90ED0C0A84
:1029100080ED0D0A90ED0B0A80ED0C0A90ED0E0A89
:10292000D0ED0F1A30EE610A80ED0B0A90ED020A2D
:10293000D0ED0B1A20EE210A80ED0A0A90ED090A6B
:10294000D0ED041AB4EEE10AF1EE10FA04DD90EDD8
:10295000040A80ED090A10E090ED090AD0ED041A8E
:10296000F1EE611AB4EEE10AF1EE10FA05D290ED43
:10297000040AB1EE400A80ED090A90ED080AD0ED94
:10298000091A30EE210AD0ED0A1A30EE210A80ED44
:10299000070A90ED070AD0ED031AB4EEE10AF1EE52
:1029A00010FA04DD90ED030A80ED070A10E090EDC7
:1029B000070AD0ED031AF1EE611AB4EEE10AF1EE66
:1029C00010FA05D290ED030AB1EE400A80ED070A35
:1029D00090ED070A77E700000000000000B101B9A0
:1029E000704791ED001A80ED001A91ED011A80ED0B
:1029F000011A91ED021A80ED021A80ED030AC0ED72
:102A0000040A9FED0D1A80ED0D1A80ED0C1A80ED71
:102A10000B1A9FED091A80ED071A80ED0A1A80ED56
:102A2000091A80ED081A80ED101A80ED0F1A80ED5A
:102A30000E1A00BFD4E70000000000002DE9F041AD
:102A400004460F46194EF5683068001D00F098FBEB
:102A500048B93068012190F82C0001FA00F0316982
:102A600021EA00003061B4F1FF3F07D137B130688F
:102A7000BDE8F041011D0E4800F0CBBB2C4430688E
:102A80004460AC4206D23068011DB06BBDE8F04135
:102A900000F0A4BB3068011D706B00F09FFBB06AB2
:102AA000844200D2B462BDE8F0810000240000201E
:102AB000C004002070B5044600F0B8FB1C4DA868A7
:102AC000401CA860286810B1686938B10CE02C601F
:102AD000A868012808D100F0EDF805E02868E16A4F
:102AE000C06A884200D82C60686A401C6862E06A4C
:102AF00001212A698140114329610E4900EB8000C0
:102B000001EB8000211D00F084FB00F0AFFB686941
:102B100000280CD02868E16AC06A884207D20649BA
:102B20004FF080500860BFF34F8FBFF36F8F70BDC1
:102B300024000020E403002004ED00E070B50D4CFB
:102B40006068002815D00C4E00F070FBF068C56876
:102B5000281D00F015FBA068401EA0606068401EA4
:102B6000606000F083FB284600F008F860680028E9
:102B7000EAD170BD24000020AC04002010B504464A
:102B800094F8511000290BD0012911D0022914D03A
:102B9000502080F31188BFF34F8FBFF36F8FFEE794
:102BA000206B00F079FB2046BDE8104000F074BBBC
:102BB0002046BDE8104000F06FBB10BD4FF47051CF
:102BC000104810F0070F06D0C01D20F007000D4977
:102BD000411AC1F570510C4A106000235360014442
:102BE000083921F00701183A11604B600B600B1A8D
:102BF000436001604068906050604FF00040506159
:102C000070470000D404002078000020074E4FF0E9
:102C10008054074DFFF792FF30680128FAD92C60E5
:102C2000BFF34F8FBFF36F8FF4E70000E403002082
:102C300004ED00E02DE9F0478146099E089D0A9CBD
:102C40009A46521E206B00EB820020F007080027F6
:102C500000290CD0002023180A5C83F834200A5C79
:102C600012B1401C1028F6D384F8437001E084F8B8
:102C70003470072D00D30625E5626564A764201D26
:102C800000F0A9FA04F1180000F0A5FA2461C5F1DA
:102C90000700A0616462E76484F8507052464946B8
:102CA000404600F003F92060002E00D03460BDE8FB
:102CB000F087000070B500240F4D04EB840005EB95
:102CC000800000F07DFA641C072CF6D30B4800F05E
:102CD00077FA0B4800F074FA0A4800F071FA0A48D3
:102CE00000F06EFA094800F06BFA094803494163A5
:102CF0001431816370BD0000E403002070040020E3
:102D00008404002098040020AC040020C0040020AB
:102D10002400002010B4144900E011460A688242E1
:102D2000FBD34B6803EB010C844503D14068184486
:102D3000486008460C68D0F804C00CEB0003A342BE
:102D40000CD10A4B1B689A4206D05268624442601A
:102D50000A681268026002E0036000E002608142DB
:102D600000D0086010BC7047780000206000002090
:102D70000749486B0068002805D0486BC068C068E8
:102D80004068886270474FF0FF30886270470000EB
:102D9000240000200A484068B0F1FF3F07D05020CF
:102DA00080F31188BFF34F8FBFF36F8FFEE7502082
:102DB00080F31188BFF34F8FBFF36F8FFEE70000E2
:102DC000800000202DE9F0410546002600F014FBAC
:102DD000344F386808B9FFF7F1FE7869054251D1E0
:102DE0009DB1083515F0070F0FD005F00700C0F1B1
:102DF0000800054415F0070F07D0502080F3118814
:102E0000BFF34F8FBFF36F8FFEE7002D3AD0786886
:102E1000854237D824490846046801E02146044623
:102E20006068A84202D220680028F7D1386884423E
:102E300028D0086800F10806206808606068411B17
:102E400010290FD9601910F0070F07D0502080F318
:102E50001188BFF34F8FBFF36F8FFEE7416065604E
:102E6000FFF758FF61687868401A7860BA68904246
:102E700000D2B86078690843606000202060F8687C
:102E8000401CF86000F066FC16F0070F07D05020D9
:102E900080F31188BFF34F8FBFF36F8FFEE730468B
:102EA000BDE8F0816000002078000020001F4FF096
:102EB00080730360001F21F001010160001F0549BC
:102EC000016014380260001F6FF0020101602038B9
:102ED00070470000952D000810B524220249A1F189
:102EE0002400FFF77BF910BDA642002000B101B914
:102EF00070470278437842EA0322C2F30A020A804A
:102F00004278D210837842EA4312C2F30A024A801E
:102F100082789211C37842EA8302037942EA8322DB
:102F2000C2F30A028A8002795210437942EAC3123C
:102F3000C2F30A02CA804279C2F301128A7242794C
:102F400012119308CB728279C37942EA032212B23A
:102F50008A81027A437A42EA032213B201F10C0217
:102F6000CB81827AC37A42EA032213B201F10C02C6
:102F70000B82037B8B74437BCB74827BC37B42EAE3
:102F800003228A82027C437C42EA032212B20A8133
:102F90000A88A2F5806212B20A804A88A2F580628D
:102FA00012B24A808A88A2F5806212B28A80CA88E8
:102FB000A2F5806212B2CA800A89A2F5806212B2BA
:102FC0000A8100BF94E7000010B5254800F0A8F87A
:102FD000234800F049F822480078022806D1002052
:102FE0001F49A1F8A400A1F8A60038E01C48007809
:102FF00020B99FED1C0A1A4880ED260A184800786F
:10300000012804D1B0EE000A154880ED260A1448C4
:1030100090ED261AF0EE410A90ED271AB0EE410A23
:103020001030FFF74BFCBDEEC00A10EE100A00B2E4
:103030000B49A1F8A400084690ED261AF0EE410ACB
:1030400090ED281AB0EE410A5430FFF737FCBDEE80
:10305000C00A10EE100A00B20149A1F8A60010BD86
:10306000D4400020000000000E498968B1F9021028
:1030700000EE101AB8EEC00ADFED0B0A20EE200AAF
:1030800080ED270A0749C968B1F9021000EE101A4D
:10309000B8EEC00ADFED050A20EE200A80ED280A0E
:1030A00070470000D44000206F12033A6F1203BA39
:1030B00000B587B0164A07CA04AB07C3144A0C32DE
:1030C00007CA01AB07C3DFED130A9FED130A04A97A
:1030D0001248FFF783FCDFED0F0A9FED0F0A01A9ED
:1030E0000E484430FFF77AFCFFF730FB0B491039EC
:1030F0008860FFF733FB09491039C8600020087069
:10310000FFF728FB05491039486007B000BD0000F3
:10311000A04200080000FA4300A00C47E440002051
:10312000017829B90B494968C97A012900D1017090
:1031300008494968C97A032901D10021017005496C
:103140004968C97A022900D101704168C97A80F8BA
:10315000A8107047D4400020FFF7AAFF0CE0FFF74B
:1031600033FF064AB2F9A610B2F9A4000022FDF717
:103170001BFA022000F0D4F8F1E70000D440002050
:103180000169436882689A60836842685A604A6845
:10319000824201D182684A60002202610868401EB2
:1031A0000860086870470000034B0360034B0B6026
:1031B000802313607047000098000020EC0000207E
:1031C00000F1080141604FF0FF328260C16001618F
:1031D00000210160704700210161704710B4D1F8EF
:1031E00000C0BCF1FF3F02D000F1080202E002691A
:1031F00004E01A4653681C686445FAD953684B606A
:1032000099608A60516008610168491C016010BCC6
:10321000704742684A6093688B6093685960916018
:1032200008610168491C016070470000502080F36C
:103230001188BFF34F8FBFF36F8F0A494868401C56
:10324000486001280CD10848006810F0FF0F07D033
:10325000502080F31188BFF34F8FBFF36F8FFEE7CD
:10326000704700008000002004ED00E00949486834
:10327000002806D0401E4860002801D180F3118844
:103280007047502080F31188BFF34F8FBFF36F8FCB
:10329000FEE700008000002070B500282AD0A0F1D1
:1032A0000804154D60686969084207D1502080F311
:1032B0001188BFF34F8FBFF36F8FFEE722683AB1DB
:1032C000502080F31188BFF34F8FBFF36F8FFEE75D
:1032D0008843606000F090F860686968084468603E
:1032E0002046FFF717FD2869401C2861BDE87040A3
:1032F00000F030BA70BD0000600000204FF0E02008
:1033000000210161816105494FF47A720968B1FBBE
:10331000F2F1491E41610721016170472000002040
:1033200010B502460020002A12D00F48006B38B1B9
:10333000502080F31188BFF34F8FBFF36F8FFEE7EC
:1033400000F05AF800211046FFF778FB00F002FA6F
:10335000002807D105494FF080500860BFF34F8F18
:10336000BFF36F8F10BD00002400002004ED00E0CB
:1033700010B586B000240594049403AA04A905A8F6
:10338000FFF712FF05980499019102900023009421
:1033900015A11748039A00F035F91649C86208B11B
:1033A000012000E0002001280AD0B0F1FF3F19D130
:1033B000502080F31188BFF34F8FBFF36F8FFEE76C
:1033C000502080F31188BFF34F8FBFF36F8F4FF002
:1033D000FF30886201204861CC6006B0BDE8104033
:1033E00000F042B806B010BD49444C450000000052
:1033F0000D2C0008240000200248016B491C0163C9
:103400007047000024000020154A106B002802D0ED
:103410000120D06170470020D0611069B0FA80F0BF
:10342000C0F11F000F4900EB800051F8203073B14C
:1034300001EB800041684968416000F1080399424E
:1034400001D1496841604068C068106070475020F1
:1034500080F31188BFF34F8FBFF36F8FFEE700003B
:1034600024000020E403002010B582B03848016831
:10347000384A914207D1502080F31188BFF34F8F13
:10348000BFF36F8FFEE700683349884207D15020B1
:1034900080F31188BFF34F8FBFF36F8FFEE72F4983
:1034A00008780190FF200870087800909DF80000CF
:1034B0009DF8002000F0F000904207D0502080F3EB
:1034C0001188BFF34F8FBFF36F8FFEE79DF80000A9
:1034D000234C00F0500020700720A0609DF80000F1
:1034E00010F0800F0BD0A068401EA0609DF8000077
:1034F000400000909DF8000010F0800FF3D1A0680C
:10350000032807D0502080F31188BFF34F8FBFF3FB
:103510006F8FFEE74FF44070A0600198087011486B
:10352000016841F470010160016841F0704101607F
:10353000FFF7E4FE00206060FCF79AFE0A4801688D
:1035400041F040410160FCF77FFE02B0002010BD59
:1035500000ED00E071C20F4170C20F4100E400E0D5
:103560008000002020ED00E034EF00E010B5502096
:1035700080F31188BFF34F8FBFF36F8F00F080F897
:1035800018B104494FF080500860002080F3118882
:1035900010BD000004ED00E02DE9F04F85B081463C
:1035A0000F9F0E9E8A4690469B464FEA8800FFF783
:1035B00009FC054628000AD05420FFF703FC044606
:1035C0000CB1256304E02846FFF766FE00E0002406
:1035D0009CB1002084F8510003905B46424651465E
:1035E0000197009602944846FFF724FB2046FFF718
:1035F00061FA05B00120BDE8F08F05B04FF0FF3053
:10360000BDE8F08F70B586B00646DDF828C00C9C8A
:103610000B98002816D0ECB15425049520630220A5
:1036200084F85100002005AD0390CDF800C001954D
:1036300002943046FFF7FEFA2046FFF73BFA059862
:1036400006B070BD502080F31188BFF34F8FBFF3D9
:103650006F8FFEE7502080F31188BFF34F8FBFF3C9
:103660006F8FFEE705484169002903D0006B18B150
:10367000002070470120704702207047240000207E
:103680002DE9F0470026314F386B002805D0B86986
:10369000401CB8613046BDE8F087F868451CFD6005
:1036A0009DB9786B006838B1502080F31188BFF362
:1036B0004F8FBFF36F8FFEE7786BB96B7963B86399
:1036C000386A401C3862FFF753FBB86ADFF8808025
:1036D00085420FD34FF00109786B006838B1786BE1
:1036E000C068C4686068854212D2B86202E04FF0D8
:1036F000FF30B8623868C06A00EB800058F82000DC
:10370000012800D90126F8690028C3D00126C1E7A5
:10371000201DFFF735FDA06A18B104F11800FFF76E
:103720002FFDE16A3A6909FA01F01043386101EBB3
:10373000810008EB8000211DFFF76BFDE06A39680E
:10374000C96A8842C8D30126C6E7000024000020C9
:10375000E40300202DE9F0470024A0462D4D286BFE
:10376000002807D0FFF762FD286B401E2863286BF6
:1037700040B149E0502080F31188BFF34F8FBFF371
:103780006F8FFEE7A86800283ED0234F38680126D7
:1037900000B3A7F1B409F868C46804F11800FFF792
:1037A000EFFC201DFFF7ECFCE06A2A6906FA00F145
:1037B0001143296100EB800009EB8000211DFFF718
:1037C00028FDE06A2968C96A884200D3EE6138683A
:1037D0000028E0D10CB1FFF7CBFAAC6944B1FFF798
:1037E0004FFF00B1EE61641E002CF8D10020A861EB
:1037F000E86948B14FF0010808494FF0805008606F
:10380000BFF34F8FBFF36F8FFFF730FD4046BDE82A
:10381000F0870000240000209804002004ED00E060
:1038200010B5194890ED271AF0EE410A90ED241AD0
:10383000B0EE410A0830FFF741F8BDEEC00A10EEC5
:10384000100A00B200EE100AB8EEC00A0E4880ED71
:10385000250A90ED251AF0EE410A4068B0F9020001
:1038600001EE100AB8EEC11AB0EE410A06484C301B
:10387000FFF724F8BDEEC00A10EE100A00B20249AC
:10388000A1F8980010BD00008041002010B52DED7A
:10389000048B044611494968088800F0B3FA41ECEA
:1038A000190B9FED0F4B9FED103B9FED112B9FEDE3
:1038B000121BB0EE490AF0EE690AFEF775FFB0EE92
:1038C000408AF0EE608A51EC180B00F069F8034969
:1038D000C1F89000BDEC048B10BD000080410020B9
:1038E00000000060FB21094000000060FB2109C0CE
:1038F0000000000000FFBF400000000000000000CA
:1039000000B587B0124A07CA04AB07C3104A0C328D
:1039100007CA01AB07C3DFED0F0A9FED0F0A04A929
:103920000E48FFF75BF8DFED0E0A9FED0E0A01A9C6
:103930000A484430FFF752F8FEF714FF07490839E8
:103940004860FEF707FF05490839086007B000BD69
:10395000B8420008000048430000C84288410020E7
:103960000000A04200401C46FFF7CAFF9FED0A0A74
:103970000A4880ED270A0DE00848FFF787FFFFF7A8
:103980004FFF0649B1F998000021FCF7EDFD022038
:10399000FFF7C6FCF0E70000DB0FC93F80410020C5
:1039A00021F00042A2F16052B2F5801F01F0004305
:1039B00028BFD2F17F6C0BD95FEA001C43EAC20238
:1039C00042EB507018BF704728BF20F001007047CD
:1039D000B2F5801FBCBF184670474FEA410C1CF57A
:1039E000001F02D2084600F00EBC70B500F0C8FA05
:1039F00000000089FFF7F6BF4FF00040A0F58000FF
:103A00007047000010B591EA030F48BF83F00043F0
:103A100000F11283841A71EB030C05D2121943EBE7
:103A20000C03001B61EB0C01DFF824E14FEA115499
:103A3000A4EB135C1EEA430F18BF9EEA445F73D0E9
:103A400023EA0E03DCF1200E21EA045143F4801333
:103A500032D322FA0CFE10EB0E0023FA0CFE41EBDF
:103A60000E01CCF1200E03FA0EFE10EB0E0051F108
:103A70000001B1F5801FCCF1200E32D201EB0451D0
:103A800012FA0EF2BDE8104058BF7047401C38BF14
:103A90005FEA420218BF7047002814BF20F00100FF
:103AA00041F100014FEA410313F5001F38BF704791
:103AB000A1F1C04100F0B2BA012A43EB0302ACF11C
:103AC000200CDCF11F0E32BF4FF0000E23FA0CF376
:103AD00010EB030041EB0451B4EB115FD0D0A1EB2C
:103AE000045101F5801149085FEA300001EB0451EF
:103AF0000ED350F1000038BF12FA0EFE08D1BDE817
:103B00001040C9E7401C38BF5FEA4202CAD1C3E790
:103B1000BDE810404FEA410313F5001F38BF70475E
:103B2000A1F1C04100F07ABA9EEA445F08D011EAE0
:103B30005E0FBDE8104004BF01F000410020704757
:103B4000BDE8104070B500F01BFA00BF64FBBE3E3C
:103B50000000E0FF2DE9C04130B4DFF8A0C23CEA2C
:103B6000111418BF3CEA131400F0EC8081EA03053D
:103B70001CEA111444EAD57418BF1CEA131500F0AE
:103B8000C780A4EB05044FF0004545EAC12145EA92
:103B9000C32341EA505143EA525304F17F749942DE
:103BA00004F500344FEAC0204FEAC22208BF904219
:103BB00000F09C804FEA13650FF24016765D4FEAE5
:103BC000134506FB05F7C7F1807706FB07F74FEAB9
:103BD000D737A7FB03687642C8F58038A7FB06CE27
:103BE00038BFA8F1010807FB08E64FF0000EA6FB5E
:103BF000028CE6FB03CEDCF1000CCEF1004E38BFA8
:103C0000AEF1010EA6FB0C584FF000074FF0000577
:103C1000E6FB0E87A1FB08C6A0FB07CE16EB0E063F
:103C200045F10005E1FB076515F1E04E7EBFA4F507
:103C300080345FEA46066D4116F1800745F10005C4
:103C40004FEA17274FEA066647EA0567A6F1DE4600
:103C5000B6F1805F4FEA15251FD9384624F0010CD4
:103C600005EBC471BCF1FE6F01EB0C1102D8F0BC86
:103C7000BDE8008124425CBF01F5801E9EEAC47F3E
:103C800002D4F0BCBDE80081244238D4F0BCA1F1DC
:103C9000C041BDE8004100F0C1B94FEAD22242EA7A
:103CA00043524FEAD323A7FB02864FEAD02040EAD3
:103CB000415007FB03661EEA0E0F4FEAD12105FBB8
:103CC000026658BFA6EB0056B6EB00564FEA520EFE
:103CD0004EEAC37E18EB0E0E56EB530EBDD518EB15
:103CE00002085E417F1C55F10005B6E74FF48015D0
:103CF0004FF000074FF000064FF00008ADE7F0BCB2
:103D00004FF0000001F1C04101F00041BDE8008129
:103D100011EA0C1F0CEA131500D00CE013EA0C1F7B
:103D200000F025804FF00000F0BC81EA030101F0B3
:103D30000041BDE80081F0BCBDE8004181EA03011B
:103D400000F06CB9F0BCBDE8004170B500F018F9A6
:103D5000097EFC3E00F007B881EA03014FF0000045
:103D600001F00041704781EA030100F057B9F0BC4F
:103D7000BDE800414FF0000021497047FFFDFBF90D
:103D8000F7F5F4F2F0EEEDEBE9E8E6E4E3E1E0DE8E
:103D9000DDDBDAD8D7D5D4D3D1D0CFCDCCCBCAC800
:103DA000C7C6C5C4C2C1C0BFBEBDBCBBBAB9B8B727
:103DB000B6B5B4B3B2B1B0AFAEADACABAAA9A8A81A
:103DC000A7A6A5A4A3A3A2A1A09F9F9E9D9C9C9BE8
:103DD0009A99999897979695959493939291919093
:103DE0008F8F8E8E8D8C8C8B8B8A89898888878724
:103DF0008685858484838382828181800000FF0799
:103E00000000F87FB0FA80F310FA03F10AD0C3F192
:103E10001D0303F580634FEA41504FEA035202EB62
:103E2000D12170474FF0000070470000DFF848C113
:103E300070B51CEA111E1EBF1CEA13159EEA0C0F7A
:103E400095EA0C0F00F06F8081EA030423EA4C131B
:103E50004EEAD47E21EA4C1141F4801143F48013E0
:103E6000AE44A1FB024CA0FB0365AEF17F7E361988
:103E700055EB0C05A1FB034C4CF10003A0FB021C0D
:103E800016EB0C06654153F10003094218BF46F0DA
:103E9000010613F4007F0BD14FEA03314FEA0530DE
:103EA000340341EA155140EA16506FF003020AE06C
:103EB0004FEAC3214FEAC520F40241EA555140EAD6
:103EC00056506FF0020202EB2E4201EB025585EADA
:103ED000CE710AD05FEA440C18BF24F0004450F1C0
:103EE000000041F1000120EAD47040F2FE7C6245FE
:103EF00000D270BDA84214BF4FF080444FF0404440
:103F0000002E08BF0024BEF1806FA8BFA1F1C04100
:103F1000BDE8704080F282804FF0000001F1C041A6
:103F200001F0004170479EEA0C0F0CEA131518BF10
:103F300095EA0C0F06D04FF0000081EA030E0EF058
:103F4000004170BD00F01CF88900013E00F007B888
:103F500000F009B84FEA430C5FEA5C5C08D081EAE4
:103F6000030100F05BB84FEA410C5FEA5C5CF6D1FC
:103F70004FF00000014970470000FF070000F87F84
:103F80000EF1020E2EF0030E5EF8046B364205D4DD
:103F9000012A43EB030515F5001F12D8012841EB58
:103FA000010C1CF5001F0CD80ED14FEAD17C15F581
:103FB000001F0CEB4C0C0CF1020C08BF4CEBD37C3B
:103FC00004E04FF0080C01E04FEAD37C0CEB4C0509
:103FD00026FA05F606F00706B6F1040C06D20EEB3B
:103FE000860CBDE870404CF0010C6047DFE80CF037
:103FF000090B02024FF000414FF00000A1F5002133
:1040000070BD19461046012851EB010418BFD4F5C4
:10401000001484BF002001F0004170BD0808A0F525
:1040200000114FEA3101704710B591EA030F48BF04
:1040300083F000433FF5EEAC841A71EB030C07D21A
:1040400012198CF0004C43EB0C03001B61EB0C01CC
:10405000DFF8A4E14FEA1154A4EB135C1EEA430F0E
:1040600018BF9EEA445F00F0B08023EA6E0352421C
:1040700021EA0451C3EB6E0338BF5B1EDCF1200E56
:1040800025D322FA0CFE10EB0E0043FA0CFE41EB96
:104090000E01CCF1200E03FA0EFE10EB0E0051F1D2
:1040A0000001CCF1200E29D412FA0EF201EB0451DA
:1040B000BDE8104058BF7047401C1CBFB2F1004F14
:1040C000704700280CBF491C20F00100704712EB1C
:1040D000020E43EB030218BF4FF0010E4EEA4202FC
:1040E000ACF1200CDCF11E0E54D943FA0CFE10EB9F
:1040F0000E0051F1FF31CCF11E0ED5D50EF1010E9F
:1041000012FA0EFE404141EB010101EB445C5FEA13
:104110005C5C10D910EBDE7001EB045138BFBEF1CE
:10412000004FBDE8104018BF704700280CBF491C65
:1041300020F00100704730D24FEAD42C11F5001165
:1041400024F400641BD0B1FA81F20B3AA41AA41E25
:10415000D2F12003914030FA03F31943904001EB70
:10416000CC71002C01EB0451BDE81040A8BF704792
:1041700001F1C0414FF0000001F000417047B0FA7A
:1041800080F310FA03F100D110BDE41A173C480582
:10419000C90AE4E701EB045110BD491001EB0451D9
:1041A000BDE810404FEA300002E04FF000017047D8
:1041B0004A0008BF0042F8D0B2F5001F28BF704780
:1041C00001F000414FF0000070479EEA445F07D0C5
:1041D00011EA5E0FBDE8104004BF002100207047C7
:1041E000BDE8104070B5FFF7CBFE00BF40DFF63EE4
:1041F00083F00041104670470000E0FF4FF0407030
:10420000E1EE100A7047FF2141EAD050C005704727
:10421000DC420008792200080000000000000000D5
:10422000800000000000000000000000E8420008DC
:1042300059310008FDFF0000000000008000000070
:104240000000000000000000F44200086939000886
:10425000FDFF0000000000008000000000000000E2
:1042600000000000D042000849270008FDFF0000C0
:1042700000000000800000000000000000000000BE
:1042800000061016000610160000000000000000D6
:1042900001020304060708090000000001020304EC
:1042A0000020CB4500001643000000000020CB4555
:1042B000000016430000000000004843000000001A
:1042C000000020410000F0410000803F000000009D
:1042D000436865636B5461736B00000064656661DD
:1042E000756C745461736B0053686F6F74546173B1
:1042F0006B0000005961775461736B001C43000828
:104300000000002098000000C4010008B443000829
:104310009800002098480000E0010008000000001C
:10432000000000000000000000000000000000008D
:104330000000000010000000010000000024F40054
:10434000000000000000000000000000000000006D
:10435000000000000000000000000000000000005D
:10436000000000000000000000000000000000004D
:10437000000000000000000000000000000000003D
:10438000000000000000000000000000000000002D
:10439000000000000000000000000000000000001D
:1043A000AAAAAAAA00000000000000000000000065
:0443B0000000000009
:040000050800018965
:00000001FF
